{"abi":[{"type":"constructor","inputs":[],"stateMutability":"nonpayable"},{"type":"receive","stateMutability":"payable"},{"type":"function","name":"contributions","inputs":[{"name":"","type":"address","internalType":"address"}],"outputs":[{"name":"","type":"uint256","internalType":"uint256"}],"stateMutability":"view"},{"type":"function","name":"donate","inputs":[],"outputs":[],"stateMutability":"payable"},{"type":"function","name":"donorStats","inputs":[{"name":"","type":"address","internalType":"address"}],"outputs":[{"name":"totalDonated","type":"uint256","internalType":"uint256"},{"name":"donationCount","type":"uint256","internalType":"uint256"},{"name":"firstDonationAt","type":"uint256","internalType":"uint256"},{"name":"lastDonationAt","type":"uint256","internalType":"uint256"}],"stateMutability":"view"},{"type":"function","name":"getDonationById","inputs":[{"name":"donationId","type":"uint256","internalType":"uint256"}],"outputs":[{"name":"","type":"tuple","internalType":"struct DonationBox.Donation","components":[{"name":"donor","type":"address","internalType":"address"},{"name":"amount","type":"uint256","internalType":"uint256"},{"name":"timestamp","type":"uint256","internalType":"uint256"}]}],"stateMutability":"view"},{"type":"function","name":"getDonationsByDonor","inputs":[{"name":"donor","type":"address","internalType":"address"}],"outputs":[{"name":"","type":"tuple[]","internalType":"struct DonationBox.Donation[]","components":[{"name":"donor","type":"address","internalType":"address"},{"name":"amount","type":"uint256","internalType":"uint256"},{"name":"timestamp","type":"uint256","internalType":"uint256"}]}],"stateMutability":"view"},{"type":"function","name":"getDonorDonationCount","inputs":[{"name":"donor","type":"address","internalType":"address"}],"outputs":[{"name":"","type":"uint256","internalType":"uint256"}],"stateMutability":"view"},{"type":"function","name":"getGlobalDonationCount","inputs":[],"outputs":[{"name":"","type":"uint256","internalType":"uint256"}],"stateMutability":"view"},{"type":"function","name":"owner","inputs":[],"outputs":[{"name":"","type":"address","internalType":"address"}],"stateMutability":"view"},{"type":"function","name":"totalDonations","inputs":[],"outputs":[{"name":"","type":"uint256","internalType":"uint256"}],"stateMutability":"view"},{"type":"function","name":"totalReceived","inputs":[],"outputs":[{"name":"","type":"uint256","internalType":"uint256"}],"stateMutability":"view"},{"type":"event","name":"Donated","inputs":[{"name":"donor","type":"address","indexed":true,"internalType":"address"},{"name":"amount","type":"uint256","indexed":false,"internalType":"uint256"},{"name":"donationId","type":"uint256","indexed":true,"internalType":"uint256"},{"name":"timestamp","type":"uint256","indexed":false,"internalType":"uint256"}],"anonymous":false},{"type":"error","name":"InvalidDonor","inputs":[]},{"type":"error","name":"InvalidIndex","inputs":[]},{"type":"error","name":"ZeroAmount","inputs":[]}],"bytecode":{"object":"0x60a060405234801561000f575f80fd5b503360805260805161071161002c5f395f6101f601526107115ff3fe608060405260043610610092575f3560e01c80637ddc914a116100575780637ddc914a146101b95780638da5cb5b146101e5578063a3c2c46214610230578063de2ed89314610244578063ed88c68e14610259575f80fd5b806318c4b991146100a55780631974958b1461010c5780633af8b2081461014e5780633d0d30861461016257806342e94c901461018e575f80fd5b366100a15761009f61025d565b005b5f80fd5b3480156100b0575f80fd5b506100e76100bf3660046105ce565b600360208190525f918252604090912080546001820154600283015492909301549092919084565b6040805194855260208501939093529183015260608201526080015b60405180910390f35b348015610117575f80fd5b506101406101263660046105ce565b6001600160a01b03165f9081526005602052604090205490565b604051908152602001610103565b348015610159575f80fd5b50600454610140565b34801561016d575f80fd5b5061018161017c3660046105ce565b610491565b60405161010391906105fb565b348015610199575f80fd5b506101406101a83660046105ce565b60026020525f908152604090205481565b3480156101c4575f80fd5b506101d86101d3366004610665565b610527565b604051610103919061067c565b3480156101f0575f80fd5b506102187f000000000000000000000000000000000000000000000000000000000000000081565b6040516001600160a01b039091168152602001610103565b34801561023b575f80fd5b506101405f5481565b34801561024f575f80fd5b5061014060015481565b61009f5b345f0361027d57604051631f2a200560e01b815260040160405180910390fd5b33610299576040516148b160f01b815260040160405180910390fd5b6004545f8054429291349181906102b19084906106a8565b925050819055506001805f8282546102c991906106a8565b9091555050335f90815260026020526040812080543492906102ec9084906106a8565b9091555050335f908152600360205260408120600181015490910361031357600281018390555b34815f015f82825461032591906106a8565b9091555050600181810180545f9061033e9084906106a8565b9091555050600381810184905560408051606081018252338082523460208084018281528486018a815260048054600180820183555f92835288517f8a35acfbc15ff81a39ae7d344fd709f28e8600b4aa8c65c6b64bfe7fe36bd19b928c0292830180546001600160a01b03199081166001600160a01b039384161790915586517f8a35acfbc15ff81a39ae7d344fd709f28e8600b4aa8c65c6b64bfe7fe36bd19c85015585517f8a35acfbc15ff81a39ae7d344fd709f28e8600b4aa8c65c6b64bfe7fe36bd19d90940193909355888452600587528a842080548084018255908552938790208a5194909c02909b01805490921692909a1691909117815591519782019790975595516002909601959095558351908152938401879052909285927f8d09c6745838fd32e92a7aec9e4c21f8fcc0ddf4300881dcffdbf060ba8bcff2910160405180910390a350505050565b6001600160a01b0381165f908152600560209081526040808320805482518185028101850190935280835260609492939192909184015b8282101561051c575f848152602090819020604080516060810182526003860290920180546001600160a01b03168352600180820154848601526002909101549183019190915290835290920191016104c8565b505050509050919050565b61055160405180606001604052805f6001600160a01b031681526020015f81526020015f81525090565b6004548210610573576040516363df817160e01b815260040160405180910390fd5b60048281548110610586576105866106c7565b5f91825260209182902060408051606081018252600390930290910180546001600160a01b031683526001810154938301939093526002909201549181019190915292915050565b5f602082840312156105de575f80fd5b81356001600160a01b03811681146105f4575f80fd5b9392505050565b602080825282518282018190525f9190848201906040850190845b818110156106595761064683855180516001600160a01b0316825260208082015190830152604090810151910152565b9284019260609290920191600101610616565b50909695505050505050565b5f60208284031215610675575f80fd5b5035919050565b81516001600160a01b031681526020808301519082015260408083015190820152606081015b92915050565b808201808211156106a257634e487b7160e01b5f52601160045260245ffd5b634e487b7160e01b5f52603260045260245ffdfea2646970667358221220ca8f8e94b80dd152ac894c44ff1e41e7e829c2e983770980c95e72e6f97b2cbb64736f6c63430008140033","linkReferences":{}},"methodIdentifiers":{"contributions(address)":"42e94c90","donate()":"ed88c68e","donorStats(address)":"18c4b991","getDonationById(uint256)":"7ddc914a","getDonationsByDonor(address)":"3d0d3086","getDonorDonationCount(address)":"1974958b","getGlobalDonationCount()":"3af8b208","owner()":"8da5cb5b","totalDonations()":"de2ed893","totalReceived()":"a3c2c462"},"id":0}